:020000042000DA
:1000000010A5002045010020254800200D060020F5
:1000100021480020B70300202F4E002000000000E0
:10002000000000000000000000000000C5490020A2
:10003000BD03002000000000AD480020D94A002088
:100040005F0100205F0100205F0100205F010020B0
:100050005F0100205F010020BF0300205F0100203E
:100060005F0100205F0100205F0100205F01002090
:100070005F0100205F0100205F010020BB03002022
:100080005F0100205F0100205F0100205F01002070
:100090005F0100205F0100205F0100205F01002060
:1000A0005F0100205F0100205F0100205F01002050
:1000B0005F0100205F0100205F0100205F01002040
:1000C0005F0100205F0100205F0100205F01002030
:1000D0005F0100203D4B00205F0100205F010020F8
:1000E0005F0100205F0100205F0100205F01002010
:1000F0005F0100205F0100205F0100205F01002000
:100100005F0100205F0100205F0100205F010020EF
:100110005F0100205F0100205F0100205F010020DF
:100120005F0100205F0100205F0100205F010020CF
:10013000DFF80CD000F01EF9004800472D4F0020DA
:1001400010A500200648804706480047FEE7FEE766
:10015000FEE7FEE7FEE7FEE7FEE7FEE7FEE7FEE777
:10016000DD4A0020310100202DE9FE4F81EA030421
:1001700004F0004421F0004100944FF0000B23F004
:10018000004350EA01045ED052EA03045BD0C3F39B
:100190000A54C1F30A552C44A4F2F3340194A0FB91
:1001A0000254C1F3130141F48011C3F3130343F468
:1001B000801301FB024400FB034E840A970A44EAC1
:1001C000815447EA8357A4FB076802958D0A05FB13
:1001D00007854FEA932C04FB0C542705029D4FEA38
:1001E000065847EA1637B5EB08056EEB070C870E85
:1001F000920E47EA811742EA8312A7FB0201B6EB8F
:100200000B0164EB00042B0D43EA0C335E1844EB46
:100210001C50DA465146E7FB0201C5F313044FEACE
:100220000B3343EA14534FEA0432019C43EA0603BA
:10023000A4F10C040294009CCDE900B400F04BF84A
:1002400003B0BDE8F08F00200146F9E70EB540F29B
:10025000334102910021CDE900110A460B4600F01E
:100260003AF803B000BDC1F30A5210B5C1F313014F
:1002700040F2FF3341F480119A4201DA002010BDB0
:1002800040F233439A42A2F2334203DC524200F07E
:1002900003F810BD904010BD202A04DB203A21FA5B
:1002A00002F00021704721FA02F3D040C2F120028F
:1002B000914008431946704710B5141E73F10004AD
:1002C00008DA401C41F1000192185B411A4301D148
:1002D00020F0010010BD2DE9F04D92469B4611B172
:1002E000B1FA81F202E0B0FA80F22032904600F0DA
:1002F00053F804460F4640EA0A0041EA0B01534610
:100300005A46084313D0114653EA010019D0C8F1E8
:1003100040025046FFF7C0FF05460E46504659467C
:10032000424600F039F8084305D0012004E0204699
:100330003946BDE8F08D0020054346EAE0762C43BF
:1003400037430A986305E40AA0EB08000022FD0A7F
:1003500044EA47540A3002D500200146E9E7010586
:1003600010196941DDE9084500196941BDE8F04D02
:10037000A2E70000064C074D06E0E06840F00103EC
:1003800094E8070098471034AC42F6D3FFF7D4FE48
:100390000067002020670020202A04DB203A00FAB2
:1003A00002F1002070479140C2F1200320FA03F3CC
:1003B00019439040704700BFFEE77047704710B583
:1003C0004FF6FF7000F024F9012000F001F810BD95
:1003D00001490860704700001404014051B18200D7
:1003E000A2F1C042126842F001038200A2F1C042B1
:1003F000136009E08200A2F1C0421268034B1A4068
:100400008300A3F1C0431A6070470000FEFF0F0095
:10041000D0E901121143C2681143026911434269D4
:10042000114382691143C2691143026A1143426A4E
:100430001143826A1143C26A1143026B114302687D
:100440009200A2F1C0421160816808290BD10168B5
:100450008900A1F1C041096841F0400201688900AA
:10046000A1F1C0410A60416B0968426B526841EAE0
:100470000211426B926841EA0221426B928941EA81
:100480000241426B128A41EA0251426B127D41EAFB
:100490000261426B926911430268521C9200A2F100
:1004A000C0421160C16AB1F5804F1BD1816B0968F0
:1004B000826B526841EA0211826B926841EA022122
:1004C000826B128A41EA0251826B127D41EA02611B
:1004D000826B9269114302689200A2F1C042C2F895
:1004E000041107E06FF0704201688900A1F1C0417A
:1004F000C1F8042170472DE9F0410246002500268D
:10050000002000230024002791F803C00CF00F0501
:1005100091F803C00CF0100CBCF1000F03D091F85F
:1005200002C04CEA050591F800C0BCF1000F31D0C3
:10053000146800202BE04FF0010C0CFA00F3B1F826
:1005400000C00CEA03069E4220D183004FF00F0C3E
:100550000CFA03F7BC4305FA03FC4CEA040491F8D7
:1005600003C0BCF1280F06D14FF0010C0CFA00FCBF
:10057000C2F814C00AE091F803C0BCF1480F05D1DD
:100580004FF0010C0CFA00FCC2F810C0401C082807
:10059000D1D31460B1F800C0BCF1FF0F34DD546852
:1005A00000202EE000F1080C4FF0010808FA0CF3CF
:1005B000B1F800C00CEA03069E4221D183004FF03F
:1005C0000F0C0CFA03F7BC4305FA03FC4CEA0404D5
:1005D00091F803C0BCF1280F05D100F1080C08FA0E
:1005E0000CF8C2F8148091F803C0BCF1480F07D191
:1005F00000F1080C4FF0010808FA0CF8C2F810805E
:10060000401C0828CED35460BDE8F08100BFFEE74F
:1006100070B50446002617480588408845431548AC
:10062000808846F60401884216D112488079012854
:1006300012D100200F4988712A2048812B208881FF
:100640000021084603F032FF01200A4988712B205F
:1006500048812A20888103E00021084603F026FF14
:1006600004F0CCF8002602E003480480761CAE4279
:10067000FAD370BDFCA000200008006C10B5044641
:10068000002C66D16C498871F02008804FF4A0706E
:1006900048800846808849F2413188420BD066483C
:1006A000808846F60401884205D06348808845F278
:1006B000103188421AD12C205F4908812A204881B4
:1006C0002B2088810846808846F60401884205D0A0
:1006D0005948808845F21031884206D14FF4A07005
:1006E000554908804FF4F0704880A1E05248808856
:1006F00045F21051884210D14FF430504E490881D4
:100700004FF4285048814FF42C5088814FF4F070FA
:1007100008804FF4487048808AE04748808841F656
:10072000631188420DD12C20434908812B20488138
:100730002A2088814FF4F07008804FF44870488078
:1007400076E022203C4908812020488121208881B0
:100750006EE00120384988714FF4A0700880F020C5
:1007600048800846808849F24131884205D03248A5
:10077000808845F21031884207D12C202E4908810B
:100780002A2048812B2088813FE02B48808846F62C
:100790000401884207D12C20274908812B20488159
:1007A0002A20888131E02448808845F2105188420F
:1007B00010D14FF43050204908814FF4285048811F
:1007C0004FF42C5088814FF4487008804FF4F0703B
:1007D00048801AE01848808841F6631188420DD19C
:1007E0002C20154908812A2048812B2088814FF42C
:1007F000487008804FF4F070488006E022200E49CF
:10080000088121204881202088810B48808846F675
:100810000401884205D00848808845F2103188429A
:1008200006D14FF4F070044908804FF4A07048805E
:10083000002003F0C5FC10BDFCA0002030B503462D
:100840000C4615465A48808849F24131884205D005
:100850005748808845F21031884214D1544948895C
:1008600003F0C6FF181203F0BDFFD8B203F0BAFFC1
:100870004F49888903F0BCFF201203F0B3FFE0B2B8
:1008800003F0B0FF8CE04A48808845F2105188425E
:1008900020D14749488903F0ABFF181203F0A2FFAB
:1008A00043494989491C88B203F0A2FFD8B203F03A
:1008B00099FF3F49888903F09BFF201203F092FFC4
:1008C0003B498989491C88B203F092FFE0B203F0EA
:1008D00089FF65E03648808841F66311884228D157
:1008E0003348807920B932480088401EC01A83B24C
:1008F0002F49488903F07CFF181203F073FFD8B228
:1009000003F070FF181203F06DFFD8B203F06AFF16
:100910002749888903F06CFF201203F063FFE0B2DF
:1009200003F060FF201203F05DFFE0B203F05AFF16
:1009300036E01F48808846F6040188421DD11C48D5
:100940008079012804D11A480088401EC01A83B259
:100950001749488903F04CFF181203F043FFD8B23F
:1009600003F040FF1249888903F042FF201203F090
:1009700039FFE0B203F036FF12E00D48807901281C
:1009800004D10B480088401EC01A83B20849488928
:10099000194603F03DFF06498889214603F038FFD8
:1009A0000348008903490880881C058030BD000089
:1009B000FCA00020FE07006C00B59FB001210802DA
:1009C00003F076FF01214FF4B47003F081FF0120A2
:1009D000ADF8780010208DF87B0003208DF87A00A8
:1009E0001EA9FE48FFF787FD4CF23370ADF8780082
:1009F00018208DF87B0003208DF87A001EA9F84896
:100A0000FFF779FD4FF68070ADF8780018208DF86B
:100A10007B0003208DF87A001EA9F248FFF76BFDDA
:100A200041F20100ADF8780018208DF87B0003201A
:100A30008DF87A001EA9EC48FFF75DFD01200890B3
:100A4000002009900F200A9000200B900C900D9030
:100A50000E900190029003200390002004900590D6
:100A60000690079006200F90002010901190102003
:100A700012900020139015901490169017904FF438
:100A800080501890002019904FF480401A90002058
:100A90001B9008A81C9001A81D900FA8FFF7B8FC98
:100AA00001210620FFF79AFC322004F0F3F9002020
:100AB00003F050FBCD49888008468088FF280ADB78
:100AC000084680884FF6FF71884204D0C748808866
:100AD000B0F5134F7ED1D32003F08AFE03F030FB34
:100AE000C249888003F02CFBC049888003F028FBB2
:100AF000BE498880084680884FF6FF7101EA0020D1
:100B0000BA49888003F01CFBB84989880843B74973
:100B100088800846808849F2413188425AD0BF20F7
:100B200003F066FE03F00CFBB049888003F008FB7D
:100B3000AE49888003F004FBAC49888003F000FBD9
:100B4000AA498880084680884FF6FF7101EA002094
:100B5000A649888003F0F4FAA44989880843A34988
:100B600088800846808846F6040188427AD0D420DE
:100B700003F03EFE03F0E4FA9C49888003F0E0FABB
:100B80009A49888003F0DCFA984988800846808872
:100B90004FF6FF7101EA00209449888003F0D0FAF3
:100BA000924989880843914988800846808845F29F
:100BB0001031884256D04FF45A4003F019FE03F02A
:100BC000BFFA8A4988804FF45B4003F011FE03F0BE
:100BD000B7FA00E046E085498880084680884FF6ED
:100BE000FF7101EA0020814988804FF45C4003F0E6
:100BF000FFFD03F0A5FA7D49898808437B49888079
:100C000008468088B0F5004F02D145F21050888028
:100C10007648808845F21051884223D0A12003F005
:100C2000E7FD03F08DFA7149888003F089FA6F4976
:100C30008880084680884FF6FF7101EA00206B49E2
:100C4000888003F07DFA694989880843674988806C
:100C50000846808845F26171884203D141F66310ED
:100C6000624988806148808849F2413188427CD15C
:100C7000CF2003F0BDFD002003F0B4FDC12003F040
:100C8000B1FD302003F0AEFDED2003F0B1FD642096
:100C900003F0A8FD032003F0A5FD122003F0A2FD40
:100CA000812003F09FFDE82003F0A2FD852003F0E2
:100CB00099FD102003F096FD7A2003F093FDCB20E0
:100CC00003F096FD392003F08DFD2C2003F08AFD02
:100CD000002003F087FD342003F084FD022003F0A0
:100CE00081FDF72003F084FD202003F07BFDEA2046
:100CF00003F07EFD002003F075FD002003F072FD7F
:100D0000C02003F075FD1B2003F06CFDC12003F033
:100D10006FFD012003F066FDC52003F069FD302062
:100D200003F060FD302003F05DFDC72003F060FD9F
:100D3000B72003F057FD362003F05AFD482003F09A
:100D400051FD3A2003F054FD552003F04BFDB12036
:100D500003F04EFD002003F045FD1A2003F042FD94
:100D6000B62003F045FD0A2000E0A5E003F03AFDBF
:100D7000A22003F037FDF22003F03AFD002003F03B
:100D800031FD262003F034FD012003F02BFDE0208F
:100D900003F02EFD0F2003F025FD2A2003F022FD95
:100DA000282003F01FFD082003F01CFD0E2003F097
:100DB00019FD082003F016FD542003F013FDA920AF
:100DC00003F010FD432003F00DFD0A2003F00AFD9F
:100DD0000F2003F007FD00200AE00000000C014096
:100DE000001401400018014000200140FCA0002038
:100DF00003F0F8FC002003F0F5FC002003F0F2FC07
:100E0000002003F0EFFCE12003F0F2FC002003F0EF
:100E1000E9FC152003F0E6FC172003F0E3FC0720B3
:100E200003F0E0FC112003F0DDFC062003F0DAFC07
:100E30002B2003F0D7FC562003F0D4FC3C2003F019
:100E4000D1FC052003F0CEFC102003F0CBFC0F20DA
:100E500003F0C8FC3F2003F0C5FC3F2003F0C2FCB8
:100E60000F2003F0BFFC2B2003F0C2FC002003F096
:100E7000B9FC002003F0B6FC012003F0B3FC3F20D6
:100E800003F0B0FC2A2003F0B3FC002003F0AAFC1E
:100E9000002003F0A7FC002003F0A4FCEF2003F0E7
:100EA000A1FC112003F0A4FC782003F0F3FF29201B
:100EB00003F09EFC03F01DB9FE48808846F604014D
:100EC00088427CD1112003F093FC142003F0E2FF50
:100ED000D02003F08DFC072003F084FC422003F0B7
:100EE00081FC1D2003F07EFCD12003F081FC00205A
:100EF00003F078FC1A2003F075FC092003F072FC63
:100F0000D22003F075FC012003F06CFC222003F0DA
:100F100069FCC02003F06CFC102003F063FC3B2054
:100F200003F060FC002003F05DFC022003F05AFC9B
:100F3000112003F057FCC52003F05AFC032003F0F6
:100F400051FCC82003F054FC002003F04BFC25208A
:100F500003F048FC212003F045FC052003F042FC8F
:100F6000002003F03FFC0A2003F03CFC652003F066
:100F700039FC252003F036FC772003F033FC5020A9
:100F800003F030FC0F2003F02DFC002003F02AFCBE
:100F9000F82003F02DFC012003F024FCFE2003F0D8
:100FA00027FC002003F01EFC022003F01BFC202085
:100FB00003F01EFC362003F01BFC082000E02CE0B0
:100FC00003F010FC3A2003F013FC552003F00AFC58
:100FD0002B2003F00DFC002003F004FC002003F0A4
:100FE00001FC012003F0FEFB3F2003F0FBFB2A2065
:100FF00003F0FEFB002003F0F5FB002003F0F2FB02
:10100000012003F0EFFBDF2003F0ECFB782003F07E
:1010100041FF292003F0ECFB4CE7A648808845F20D
:101020001031884240F07C87ED2003F0E1FB012085
:1010300003F0D8FBFE2003F0D5FBEE2003F0D8FB35
:10104000DE2003F0CFFB212003F0CCFBF12003F0E6
:10105000CFFB012003F0C6FBDF2003F0C9FB10200B
:1010600003F0C0FBC42003F0C3FB8F2003F0BAFBE6
:10107000C62003F0BDFB002003F0B4FBE22003F028
:10108000B1FBE22003F0AEFBE22003F0ABFBBF209C
:1010900003F0AEFBAA2003F0A5FBB02003F0A8FBF1
:1010A0000D2003F09FFB002003F09CFB0D2003F0BC
:1010B00099FB002003F096FB112003F093FB002026
:1010C00003F090FB192003F08DFB002003F08AFB56
:1010D000212003F087FB002003F084FB2D2003F088
:1010E00081FB002003F07EFB3D2003F07BFB002012
:1010F00003F078FB5D2003F075FB002003F072FB2A
:101100005D2003F06FFB002003F06CFBB12003F0C7
:101110006FFB802003F066FB002003F063FB8B2055
:1011200003F060FB002003F05DFB962003F05AFB08
:10113000002003F057FBB22003F05AFB002003F01D
:1011400051FB002003F04EFB022003F04BFB00207C
:1011500003F048FB032003F045FB002003F042FBB3
:10116000B32003F045FB002003F03CFB002003F01C
:1011700039FB002003F036FB002003F033FB002096
:1011800003F030FB002003F02DFB002003F02AFBCE
:10119000002003F027FB002003F024FB002003F0D5
:1011A00021FB002003F01EFB002003F01BFB0020AE
:1011B00003F018FB002003F015FB002003F012FBE6
:1011C000002003F00FFB002003F00CFB002003F0D5
:1011D00009FB002003F006FB002003F003FB0020C6
:1011E00003F000FB002003F0FDFA002003F0FAFA00
:1011F000002003F0F7FAB42003F0FAFA8B2003F092
:10120000F1FA002003F0EEFA962003F0EBFA00204A
:1012100003F0E8FAA12003F0E5FA002003F0E2FA77
:10122000B52003F0E5FA022003F0DCFA002003F019
:10123000D9FA032003F0D6FA002003F0D3FA0420F1
:1012400003F0D0FA002003F0CDFAB62003F0D0FA74
:10125000002003F0C7FA002003F0C4FAB72003F01F
:10126000C7FA002003F0BEFA002003F0BBFA3F20CB
:1012700003F0B8FA002003F0B5FA5E2003F0B2FAEA
:10128000002003F0AFFA642003F0ACFA002003F072
:10129000A9FA8C2003F0A6FA002003F0A3FAAC20F0
:1012A00003F0A0FA002003F09DFADC2003F09AFA84
:1012B000002001E0FCA0002003F094FA702003F06D
:1012C00091FA002003F08EFA902003F08BFA0020B0
:1012D00003F088FAEB2003F085FA002003F082FA8D
:1012E000DC2003F07FFA002003F07CFAB82003F042
:1012F0007FFA002003F076FA002003F073FA002052
:1013000003F070FA002003F06DFA002003F06AFA8F
:10131000002003F067FA002003F064FA002003F0D5
:1013200061FABA2003F064FA242003F05BFA00208B
:1013300003F058FA002003F055FA002003F052FAA7
:10134000C12003F055FA202003F04CFA002003F0EE
:1013500049FA542003F046FA002003F043FAFF2034
:1013600003F040FA002003F03DFAC22003F040FAF7
:101370000A2003F037FA002003F034FA042003F0C7
:1013800031FA002003F02EFAC32003F031FA3C209A
:1013900003F028FA002003F025FA3A2003F022FA9D
:1013A000002003F01FFA392003F01CFA002003F09C
:1013B00019FA372003F016FA002003F013FA3C2044
:1013C00003F010FA002003F00DFA362003F00AFAB9
:1013D000002003F007FA322003F004FA002003F0A3
:1013E00001FA2F2003F0FEF9002003F0FBF92C2076
:1013F00003F0F8F9002003F0F5F9292003F0F2F9E1
:10140000002003F0EFF9262003F0ECF9002003F0B0
:10141000E9F9242003F0E6F9002003F0E3F92420A1
:1014200003F0E0F9002003F0DDF9232003F0DAF9FE
:10143000002003F0D7F93C2003F0D4F9002003F09A
:10144000D1F9362003F0CEF9002003F0CBF9322099
:1014500003F0C8F9002003F0C5F92F2003F0C2F90A
:10146000002003F0BFF92C2003F0BCF9002003F0AA
:10147000B9F9292003F0B6F9002003F0B3F92620CA
:1014800003F0B0F9002003F0ADF9242003F0AAF92D
:10149000002003F0A7F9242003F0A4F9002003F0B2
:1014A000A1F9232003F09EF9002003F09BF9C4204A
:1014B00003F09EF9622003F095F9002003F092F901
:1014C000052003F08FF9002003F08CF9842003F04D
:1014D00089F9002003F086F9F02003F083F9002059
:1014E00003F080F9182003F07DF9002003F07AF969
:1014F000A42003F077F9002003F074F9182003F01A
:1015000071F9002003F06EF9502003F06BF9002010
:1015100003F068F90C2003F065F9002003F062F98C
:10152000172003F05FF9002003F05CF9952003F029
:1015300059F9002003F056F9F32003F053F9002085
:1015400003F050F9E62003F04DF9002003F04AF9CA
:10155000C52003F04DF9322003F044F9002003F0D8
:1015600041F9442003F03EF9002003F03BF96520E7
:1015700003F038F9002003F035F9762003F032F952
:10158000002003F02FF9882003F02CF9002003F04D
:1015900029F9C62003F02CF9202003F023F90020BC
:1015A00003F020F9172003F01DF9002003F01AF9C9
:1015B000012003F017F9002003F014F9C72003F00D
:1015C00017F9002003F00EF9002003F00BF90020BA
:1015D00003F008F9002003F005F9C82003F008F92A
:1015E000002003F0FFF8002003F0FCF8002003F0D7
:1015F000F9F8002003F0F6F8C92003F0F9F800200C
:1016000003F0F0F8002003F0EDF8002003F0EAF812
:10161000002003F0E7F8002003F0E4F8002003F0D6
:10162000E1F8002003F0DEF8002003F0DBF80020F2
:1016300003F0D8F8002003F0D5F8002003F0D2F82A
:10164000002003F0CFF8002003F0CCF8002003F0D6
:10165000C9F8002003F0C6F8002003F0C3F8E0202A
:1016600003F0C6F8162003F0BDF8002003F0BAF826
:101670001C2003F0B7F8002003F0B4F8212003F099
:10168000B1F8002003F0AEF8362003F0ABF80020EC
:1016900003F0A8F8462003F0A5F8002003F0A2F814
:1016A000522003F09FF8002003F09CF8642003F020
:1016B00099F8002003F096F87A2003F093F80020C0
:1016C00003F090F88B2003F08DF8002003F08AF8E7
:1016D000992003F087F8002003F084F8A82003F095
:1016E00081F8002003F07EF8B92003F07BF8002099
:1016F00003F078F8C42003F075F8002003F072F8C6
:10170000CA2003F06FF8002003F06CF8D22003F039
:1017100069F8002003F066F8D92003F063F8002090
:1017200003F060F8E02003F05DF8002003F05AF8C1
:10173000F32003F057F8002003F054F8E12003F001
:1017400057F8162003F04EF8002003F04BF81C2049
:1017500003F048F8002003F045F8222003F042F897
:10176000002003F03FF8362003F03CF8002003F09F
:1017700039F8452003F036F8002003F033F8522002
:1017800003F030F8002003F02DF8642003F02AF86D
:10179000002003F027F87A2003F024F8002003F05B
:1017A00021F88B2003F01EF8002003F01BF899208D
:1017B00003F018F8002003F015F8A82003F012F841
:1017C000002003F00FF8B92003F00CF8002003F01C
:1017D00009F8C42003F006F8002003F003F8CA203B
:1017E00003F000F8002002F0FDFFD22002F0FAFF23
:1017F000002002F0F7FFD82002F0F4FF002002F0F2
:10180000F1FFE02002F0EEFF002002F0EBFFF320FA
:1018100002F0E8FF002002F0E5FFE22002F0E8FF1E
:10182000052002F0DFFF002002F0DCFF0B2002F0B9
:10183000D9FF002002F0D6FF1B2002F0D3FF0020CA
:1018400002F0D0FF342002F0CDFF002002F0CAFFEA
:10185000442002F0C7FF002002F0C4FF4F2002F036
:10186000C1FF002002F0BEFF612002F0BBFF00209C
:1018700002F0B8FF792002F0B5FF002002F0B2FFBD
:10188000882002F0AFFF002002F0ACFF972002F0AA
:10189000A9FF002002F0A6FFA62002F0A3FF00206F
:1018A00002F0A0FFB72002F09DFF002002F09AFF97
:1018B000C22002F097FF002002F094FFC72002F040
:1018C00091FF002002F08EFFD12002F08BFF00205C
:1018D00002F088FFD62002F085FF002002F082FF90
:1018E000DD2002F07FFF002002F07CFFF32002F0F9
:1018F00079FF002002F076FFE32002F079FF052057
:1019000002F070FF002002F06DFF0A2002F06AFF73
:10191000002002F067FF1C2002F064FF002002F0AC
:1019200061FF332002F05EFF002002F05BFF4420E5
:1019300002F058FF002002F055FF502002F052FF45
:10194000002002F04FFF622002F04CFF002002F066
:1019500049FF782002F046FF002002F043FF882074
:1019600002F040FF002002F03DFF972002F03AFF16
:10197000002002F037FFA62002F034FF002002F022
:1019800031FFB72002F02EFF002002F02BFFC22013
:1019900002F028FF002002F025FFC72002F022FFFE
:1019A000002002F01FFFD12002F01CFF002002F0F7
:1019B00019FFD52002F016FF002002F013FFDD20F2
:1019C00002F010FF002002F00DFFF32002F00AFFEA
:1019D000002002F007FFE42002F00AFF012002F0DD
:1019E00001FF002002F0FEFE012002F0FBFE0020BD
:1019F00002F0F8FE022002F0F5FE002002F0F2FEF6
:101A00002A2002F0EFFE002002F0ECFE3C2002F063
:101A1000E9FE002002F0E6FE4B2002F0E3FE00208B
:101A200002F0E0FE5D2002F0DDFE002002F0DAFEB2
:101A3000742002F0D7FE002002F0D4FE842002F0D1
:101A4000D1FE002002F0CEFE932002F0CBFE00205B
:101A500002F0C8FEA22002F0C5FE002002F0C2FE85
:101A6000B32002F0BFFE002002F0BCFEBE2002F058
:101A7000B9FE002002F0B6FEC42002F0B3FE002042
:101A800002F0B0FECD2002F0ADFE002002F0AAFE72
:101A9000D32002F0A7FE002002F0A4FEDD2002F019
:101AA000A1FE002002F09EFEF32002F09BFE00202B
:101AB00002F098FEE52002F09BFE002002F092FE6C
:101AC000002002F08FFE002002F08CFE002002F0C9
:101AD00089FE022002F086FE002002F083FE29200B
:101AE00002F080FE002002F07DFE3C2002F07AFE33
:101AF000002002F077FE4B2002F074FE002002F07E
:101B000071FE5D2002F06EFE002002F06BFE74207C
:101B100002F068FE002002F065FE842002F062FE02
:101B2000002002F05FFE932002F05CFE002002F035
:101B300059FEA22002F056FE002002F053FEB32010
:101B400002F050FE002002F04DFEBE2002F04AFEE0
:101B5000002002F047FEC42002F044FE002002F004
:101B600041FECD2002F03EFE002002F03BFED320DD
:101B700002F038FE002002F035FEDC2002F032FEDA
:101B8000002002F02FFEF32002F02CFE002002F0D5
:101B900029FEE62002F02CFE112002F023FE002098
:101BA00002F020FE342002F01DFE002002F01AFE9A
:101BB000562002F017FE002002F014FE762002F0FC
:101BC00011FE002002F00EFE772002F00BFE002036
:101BD00002F008FE662002F005FE002002F002FE80
:101BE000882002F0FFFD002002F0FCFD992002F0A9
:101BF000F9FD002002F0F6FDBB2002F0F3FD00200D
:101C000002F0F0FD992002F0EDFD002002F0EAFD67
:101C1000662002F0E7FD002002F0E4FD552002F00E
:101C2000E1FD002002F0DEFD552002F0DBFD00208A
:101C300002F0D8FD452002F0D5FD002002F0D2FDD3
:101C4000432002F0CFFD002002F0CCFD442002F042
:101C5000C9FD002002F0C6FDE72002F0C9FD3220D8
:101C600002F0C0FD002002F0BDFD552002F0BAFDDB
:101C7000002002F0B7FD762002F0B4FD002002F053
:101C8000B1FD662002F0AEFD002002F0ABFD672042
:101C900002F0A8FD002002F0A5FD672002F0A2FDE1
:101CA000002002F09FFD872002F09CFD002002F042
:101CB00099FD992002F096FD002002F093FDBB20D3
:101CC00002F090FD002002F08DFD992002F08AFDC7
:101CD000002002F087FD772002F084FD002002F052
:101CE00081FD442002F07EFD002002F07BFD5620A5
:101CF00002F078FD002002F075FD232002F072FD55
:101D0000002002F06FFD332002F06CFD002002F095
:101D100069FD452002F066FD002002F063FDE82029
:101D200002F066FD002002F05DFD002002F05AFD89
:101D3000992002F057FD002002F054FD872002F0A8
:101D400051FD002002F04EFD882002F04BFD0020E6
:101D500002F048FD772002F045FD002002F042FD30
:101D6000662002F03FFD002002F03CFD882002F0DA
:101D700039FD002002F036FDAA2002F033FD0020DC
:101D800002F030FDBB2002F02DFD002002F02AFD04
:101D9000992002F027FD002002F024FD662002F0C9
:101DA00021FD002002F01EFD552002F01BFD002049
:101DB00002F018FD552002F015FD002002F012FD82
:101DC000442002F00FFD002002F00CFD442002F040
:101DD00009FD002002F006FD552002F003FD002061
:101DE00002F000FDE92002F003FDAA2002F0FAFC57
:101DF000002002F0F7FC002002F0F4FC002002F0CA
:101E0000F1FC002002F0F4FCAA2002F0EBFCCF2051
:101E100002F0EEFC002002F0E5FC002002F0E2FC03
:101E2000002002F0DFFC002002F0DCFC002002F0C9
:101E3000D9FC002002F0D6FC002002F0D3FC0020E8
:101E400002F0D0FC002002F0CDFC002002F0CAFC21
:101E5000002002F0C7FC002002F0C4FC002002F0C9
:101E6000C1FC002002F0BEFC002002F0BBFC002000
:101E700002F0B8FC002002F0B5FCF02002F0B8FC43
:101E8000002002F0AFFC502002F0ACFC002002F079
:101E9000A9FC002002F0A6FC002002F0A3FCF32025
:101EA00002F0A6FC002002F09DFCF92002F0A0FC4C
:101EB000062002F097FC102002F094FC292002F08A
:101EC00091FC002002F08EFC3A2002F091FC55209B
:101ED00002F088FC112002F08BFC642002F0DAFF93
:101EE000292002F085FC352002F082FC002002F05F
:101EF00079FC512002F07CFCFF2002F073FC53209F
:101F000002F076FC2C2002F06DFC552002F070FCF3
:101F1000822002F067FC2C2002F06AFC02F0E9B893
:101F2000FE48808845F2105188427DD155214FF4FA
:101F3000704002F06DFCAA214FF2010002F068FC33
:101F400052214FF2020002F063FC08214FF203001D
:101F500002F05EFC01214FF2040002F059FC0D2159
:101F60004FF4304002F054FC0D214BF2010002F01E
:101F70004FFC0D214BF2020002F04AFC34214FF4D9
:101F8000364002F045FC34214BF2016002F040FC87
:101F900034214BF2026002F03BFC0D214FF4314042
:101FA00002F036FC0D214BF2011002F031FC0D2144
:101FB0004BF2021002F02CFC34214FF4374002F0B7
:101FC00027FC34214BF2017002F022FC34214BF249
:101FD000027002F01DFC00214FF4324002F018FCA8
:101FE00000214BF2012002F013FC00214BF20220F1
:101FF00002F00EFC24214FF4384002F009FC2421A9
:102000004BF6010002F004FC24214BF6020002F022
:10201000FFFB01214FF43F4002F0FAFB0F214FF488
:10202000334002F0F5FB00E0FDE30F214BF20130FD
:1020300002F0EEFB0F214BF2023002F0E9FB3421FB
:102040004FF4394002F0E4FB34214BF6011002F06A
:10205000DFFB34214BF6021002F0DAFB08214FF4CB
:10206000354002F0D5FB08214BF2015002F0D0FBC5
:1020700008214BF2025002F0CBFB03214FF4424007
:1020800002F0C6FB24214FF43A4002F0C1FB2421A8
:102090004BF6012002F0BCFB24214BF6022002F09B
:1020A000B7FB00214FF43C4002F0B2FB78214BF625
:1020B000014002F0ADFB00214BF6024002F0A8FB0C
:1020C00000214FF43D4002F0A3FB78214BF6015074
:1020D00002F09EFB00214BF6025002F099FB00211A
:1020E0004FF43E4002F094FB64214BF6016002F095
:1020F0008FFB00214FF4514002F08AFB33214DF257
:10210000011002F085FB00214DF2021002F080FB6D
:1021100034214DF2031002F07BFB00214DF204103C
:1021200002F076FB3A214DF2051002F071FB00211E
:102130004DF2061002F06CFB4A214DF2071002F03E
:1021400067FB00214DF2081002F062FB5C214DF2AA
:10215000091002F05DFB00214DF20A1002F058FB5D
:1021600081214DF20B1002F053FB00214DF20C10B7
:1021700002F04EFBA6214DF20D1002F049FB0021AA
:102180004DF20E1002F044FBE5214DF20F1002F06B
:102190003FFB01214DF2101002F03AFB13214DF2EA
:1021A000111002F035FB01214DF2121002F030FB4C
:1021B00054214DF2131002F02BFB01214DF21410AB
:1021C00002F026FB82214DF2151002F021FB0121C5
:1021D0004DF2161002F01CFBCA214DF2171002F04E
:1021E00017FB02214DF2181002F012FB00214DF2F4
:1021F000191002F00DFB02214DF21A1002F008FB3B
:1022000001214DF21B1002F003FB02214DF21C10C4
:1022100002F0FEFA34214DF21D1002F0F9FA02210B
:102220004DF21E1002F0F4FA67214DF21F1002F079
:10223000EFFA02214DF2201002F0EAFA84214DF269
:10224000211002F0E5FA02214DF2221002F0E0FA2C
:10225000A4214DF2231002F0DBFA02214DF22410EA
:1022600002F0D6FAB7214DF2251002F0D1FA022180
:102270004DF2261002F0CCFACF214DF2271002F0D9
:10228000C7FA02214DF2281002F0C2FADE214DF207
:10229000291002F0BDFA02214DF22A1002F0B8FA1C
:1022A000F2214DF22B1002F0B3FA02214DF22C1064
:1022B00002F0AEFAFE214DF22D1002F0A9FA032130
:1022C0004DF22E1002F0A4FA10214DF22F1002F060
:1022D0009FFA03214DF2301002F09AFA33214DF2A9
:1022E000311002F095FA03214DF2321002F090FA0B
:1022F0006D214DF2331002F08BFA00214FF4524061
:1023000002F086FA33214DF2012002F081FA002119
:102310004DF2022002F07CFA342101E0FCA0002002
:102320004DF2032002F074FA00214DF2042002F075
:102330006FFA3A214DF2052002F06AFA00214DF2BF
:10234000062002F065FA4A214DF2072002F060FAF9
:1023500000214DF2082002F05BFA5C214DF20920C9
:1023600002F056FA00214DF20A2002F051FA8121C2
:102370004DF20B2002F04CFA00214DF20C2002F03D
:1023800047FAA6214DF20D2002F042FA00214DF24B
:102390000E2002F03DFAE5214DF20F2002F038FA4E
:1023A00001214DF2102002F033FA13214DF21120D9
:1023B00002F02EFA01214DF2122002F029FA5421E6
:1023C0004DF2132002F024FA01214DF2142002F004
:1023D0001FFA82214DF2152002F01AFA01214DF266
:1023E000162002F015FACA214DF2172002F010FA59
:1023F00002214DF2182002F00BFA00214DF21920B3
:1024000002F006FA02214DF21A2002F001FA01212F
:102410004DF21B2002F0FCF902214DF21C2002F0CB
:10242000F7F934214DF21D2002F0F2F902214DF2AC
:102430001E2002F0EDF967214DF21F2002F0E8F9AD
:1024400002214DF2202002F0E3F984214DF22120F7
:1024500002F0DEF902214DF2222002F0D9F9A42186
:102460004DF2232002F0D4F902214DF2242002F093
:10247000CFF9B7214DF2252002F0CAF902214DF221
:10248000262002F0C5F9CF214DF2272002F0C0F935
:1024900002214DF2282002F0BBF9DE214DF2292065
:1024A00002F0B6F902214DF22A2002F0B1F9F22130
:1024B0004DF22B2002F0ACF902214DF22C2002F05B
:1024C000A7F9FE214DF22D2002F0A2F903214DF2D1
:1024D0002E2002F09DF910214DF22F2002F098F9E4
:1024E00003214DF2302002F093F933214DF23120D7
:1024F00002F08EF903214DF2322002F089F96D21AC
:102500004DF2332002F084F900214FF4534002F0E1
:102510007FF933214DF2013002F07AF900214DF2BA
:10252000023002F075F934214DF2033002F070F9F7
:1025300000214DF2043002F06BF93A214DF20530E2
:1025400002F066F900214DF2063002F061F94A21ED
:102550004DF2073002F05CF900214DF2083002F034
:1025600057F95C214DF2093002F052F900214DF289
:102570000A3002F04DF981214DF20B3002F048F99A
:1025800000214DF20C3002F043F9A6214DF20D303E
:1025900002F03EF900214DF20E3002F039F9E5214A
:1025A0004DF20F3002F034F901214DF2103002F0FB
:1025B0002FF913214DF2113002F02AF901214DF2C9
:1025C000123002F025F954214DF2133002F020F9B7
:1025D00001214DF2143002F01BF982214DF2153029
:1025E00002F016F901214DF2163002F011F9CA215C
:1025F0004DF2173002F00CF902214DF2183002F0C2
:1026000007F900214DF2193002F002F902214DF2D2
:102610001A3002F0FDF801214DF21B3002F0F8F8FB
:1026200002214DF21C3002F0F3F834214DF21D303E
:1026300002F0EEF802214DF21E3002F0E9F86721B7
:102640004DF21F3002F0E4F802214DF2203002F08A
:10265000DFF884214DF2213002F0DAF802214DF248
:10266000223002F0D5F8A4214DF2233002F0D0F848
:1026700002214DF2243002F0CBF8B7214DF2253083
:1026800002F0C6F802214DF2263002F0C1F8CF2147
:102690004DF2273002F0BCF802214DF2283002F052
:1026A000B7F8DE214DF2293002F0B2F802214DF2E6
:1026B0002A3002F0ADF8F2214DF22B3002F0A8F8EA
:1026C00002214DF22C3002F0A3F8FE214DF22D3004
:1026D00002F09EF803214DF22E3002F099F81021FD
:1026E0004DF22F3002F094F803214DF2303002F019
:1026F0008FF833214DF2313002F08AF803214DF288
:10270000323002F085F86D214DF2333002F080F85E
:1027100000214FF4544002F07BF833214DF2014088
:1027200002F076F800214DF2024002F071F83421F7
:102730004DF2034002F06CF800214DF2044002F02B
:1027400067F83A214DF2054002F062F800214DF29F
:10275000064002F05DF84A214DF2074002F058F8B9
:1027600000214DF2084002F053F85C214DF209407F
:1027700002F04EF800214DF20A4002F049F88121A2
:102780004DF20B4002F044F800214DF20C4002F0F3
:102790003FF8A6214DF20D4002F03AF800214DF22B
:1027A0000E4002F035F8E5214DF20F4002F030F80E
:1027B00001214DF2104002F02BF813214DF211408F
:1027C00002F026F801214DF2124002F021F85421C6
:1027D0004DF2134002F01CF801214DF2144002F0BA
:1027E00017F882214DF2154002F012F801214DF246
:1027F000164002F00DF8CA214DF2174002F008F819
:1028000002214DF2184002F003F800214DF2194068
:1028100001F0FEFF02214DF21A4001F0F9FF012103
:102820004DF21B4000E006E301F0F2FF02214DF201
:102830001C4001F0EDFF34214DF21D4001F0E8FF96
:1028400002214DF21E4001F0E3FF67214DF21F40CF
:1028500001F0DEFF02214DF2204001F0D9FF84217A
:102860004DF2214001F0D4FF02214DF2224001F04F
:10287000CFFFA4214DF2234001F0CAFF02214DF207
:10288000244001F0C5FFB7214DF2254001F0C0FF03
:1028900002214DF2264001F0BBFFCF214DF227402F
:1028A00001F0B6FF02214DF2284001F0B1FFDE2118
:1028B0004DF2294001F0ACFF02214DF22A4001F017
:1028C000A7FFF2214DF22B4001F0A2FF02214DF2B1
:1028D0002C4001F09DFFFE214DF22D4001F098FFAC
:1028E00003214DF22E4001F093FF10214DF22F40B5
:1028F00001F08EFF03214DF2304001F089FF3321BA
:102900004DF2314001F084FF03214DF2324001F0DD
:102910007FFF6D214DF2334001F07AFF00214FF42B
:10292000554001F075FF33214DF2015001F070FF69
:1029300000214DF2025001F06BFF34214DF20350A3
:1029400001F066FF00214DF2045001F061FF3A21D1
:102950004DF2055001F05CFF00214DF2065001F0F0
:1029600057FF4A214DF2075001F052FF00214DF26E
:10297000085001F04DFF5C214DF2095001F048FF75
:1029800000214DF20A5001F043FF81214DF20B501E
:1029900001F03EFF00214DF20C5001F039FFA6215D
:1029A0004DF20D5001F034FF00214DF20E5001F0B8
:1029B0002FFFE5214DF20F5001F02AFF01214DF2CA
:1029C000105001F025FF13214DF2115001F020FFAE
:1029D00001214DF2125001F01BFF54214DF2135012
:1029E00001F016FF01214DF2145001F011FF822178
:1029F0004DF2155001F00CFF01214DF2165001F07F
:102A000007FFCA214DF2175001F002FF02214DF2DB
:102A1000185001F0FDFE00214DF2195001F0F8FEB2
:102A200002214DF21A5001F0F3FE01214DF21B502C
:102A300001F0EEFE02214DF21C5001F0E9FE3421BE
:102A40004DF21D5001F0E4FE02214DF21E5001F046
:102A5000DFFE67214DF21F5001F0DAFE02214DF238
:102A6000205001F0D5FE84214DF2215001F0D0FE1E
:102A700002214DF2225001F0CBFEA4214DF2235051
:102A800001F0C6FE02214DF2245001F0C1FEB72133
:102A90004DF2255001F0BCFE02214DF2265001F00E
:102AA000B7FECF214DF2275001F0B2FE02214DF2C8
:102AB000285001F0ADFEDE214DF2295001F0A8FEB4
:102AC00002214DF22A5001F0A3FEF2214DF22B50CB
:102AD00001F09EFE02214DF22C5001F099FEFE21E4
:102AE0004DF22D5001F094FE03214DF22E5001F0D5
:102AF0008FFE10214DF22F5001F08AFE03214DF27E
:102B0000305001F085FE33214DF2315001F080FE4E
:102B100003214DF2325001F07BFE6D214DF2335016
:102B200001F076FE00214FF4564001F071FE332192
:102B30004DF2016001F06CFE00214DF2026001F0E7
:102B400067FE34214DF2036001F062FE00214DF278
:102B5000046001F05DFE3A214DF2056001F058FE7F
:102B600000214DF2066001F053FE4A214DF207604C
:102B700001F04EFE00214DF2086001F049FE5C219B
:102B80004DF2096001F044FE00214DF20A6001F0AF
:102B90003FFE81214DF20B6001F03AFE00214DF223
:102BA0000C6001F035FEA6214DF20D6001F030FE03
:102BB00000214DF20E6001F02BFEE5214DF20F6079
:102BC00001F026FE01214DF2106001F021FE1321DB
:102BD0004DF2116001F01CFE01214DF2126001F076
:102BE00017FE54214DF2136001F012FE01214DF247
:102BF000146001F00DFE82214DF2156001F008FE17
:102C000001214DF2166001F003FECA214DF217605A
:102C100001F0FEFD02214DF2186001F0F9FD0021E6
:102C20004DF2196001F0F4FD02214DF21A6001F03D
:102C3000EFFD01214DF21B6001F0EAFD02214DF292
:102C40001C6001F0E5FD34214DF21D6001F0E0FD56
:102C500002214DF21E6001F0DBFD67214DF21F6085
:102C600001F0D6FD02214DF2206001F0D1FD84215A
:102C70004DF2216001F0CCFD02214DF2226001F005
:102C8000C7FDA4214DF2236001F0C2FD02214DF2E7
:102C9000246001F0BDFDB7214DF2256001F0B8FDC3
:102CA00002214DF2266001F0B3FDCF214DF22760E5
:102CB00001F0AEFD02214DF2286001F0A9FDDE21F8
:102CC0004DF2296001F0A4FD02214DF22A6001F0CD
:102CD0009FFDF2214DF22B6001F09AFD02214DF291
:102CE0002C6001F095FDFE214DF22D6001F090FD6C
:102CF00003214DF22E6001F08BFD10214DF22F606B
:102D000001F086FD03214DF2306001F081FD332199
:102D10004DF2316001F07CFD03214DF2326001F093
:102D200077FD6D214DF2336001F072FD55214FF4B6
:102D3000704001F06DFDAA214FF2010001F068FD25
:102D400052214FF2020001F063FD08214FF203000F
:102D500001F05EFD00214FF2040001F059FDCC218D
:102D60004FF4314001F054FD00214BF2011001F00D
:102D70004FFD05214FF4364001F04AFD70214FF41C
:102D8000374001F045FD70214BF2017001F040FD2C
:102D900001214FF4384001F03BFD03214BF60100C7
:102DA00001F036FD03214BF6020001F031FD032155
:102DB0004BF6030001F02CFD02214FF43C4001F0E2
:102DC00027FD00214BF6014001F022FD00214BF6CA
:102DD000024001F01DFDD0214FF4494001F018FDE3
:102DE00002214CF6011001F013FD50214CF60210A7
:102DF00001F00EFD50214CF6031001F009FD5021A9
:102E00004CF6041001F004FD00214FF4545001F081
:102E1000FFFC55214FF4685001F0FAFC4FF4885044
:102E200001F0E6FC782002F05BF84FF4245001F04A
:102E3000DFFC01F05EB9FE48808849F22531884206
:102E40007ED147F6F001E52001F0E2FC4FF48071FD
:102E5000012001F0DDFC4FF4E061022001F0D8FC1C
:102E600041F23001032001F0D3FC0021042001F0E5
:102E7000CFFC40F20221082001F0CAFC0021092009
:102E800001F0C6FC00210A2001F0C2FC00210C2048
:102E900001F0BEFC00210D2001F0BAFC00210F2042
:102EA00001F0B6FC0021102001F0B2FC0721112036
:102EB00001F0AEFC0021122001F0AAFC0021132039
:102EC00001F0A6FC0021072001F0A2FC41F2906174
:102ED000102001F09DFC40F22721112001F098FC08
:102EE0009D21122001F094FC4FF4C851132001F0F1
:102EF0008FFC2521292001F08BFC0D212B2001F0D6
:102F000087FC0721302001F083FC40F2033131209F
:102F100001F07EFC0321322001F07AFC40F2062110
:102F2000352001F075FC0821362001F071FC40F2DB
:102F30000641372001F06CFC4FF44171382000E06D
:102F400057E001F065FC0721392001F061FC40F2F7
:102F500002613C2001F05CFC08213D2001F058FC9E
:102F60000021502001F054FCEF21512001F050FCD1
:102F70000021522001F04CFC40F23F11532001F09F
:102F800047FC4FF42741602001F042FC0121612001
:102F900001F03EFC00216A2001F03AFC0021802073
:102FA00001F036FC0021812001F032FC002182205A
:102FB00001F02EFC0021832001F02AFC0021842056
:102FC00001F026FC0021852001F022FC1021902038
:102FD00001F01EFC4FF4C061922001F019FC40F298
:102FE0003311072001F014FC2221002001F010FC15
:102FF0001FE78F48808849F2283188427ED141F20C
:103000008F01EC2001F004FC41F23421EF2001F0AB
:10301000FFFB4FF48071012001F0FAFB4FF4E061F7
:10302000022001F0F5FB41F23001032001F0F0FB3A
:103030000021042001F0ECFB40F20221082001F005
:10304000E7FB0021092001F0E3FB00210A2001F049
:10305000DFFB01210C2001F0DBFB00210D2001F042
:10306000D7FB00210F2001F0D3FB0021102001F03D
:10307000CFFB0721112001F0CBFB0021122001F032
:10308000C7FB0021132001F0C3FB0121072001F041
:10309000BFFB322001F0FEFE41F29041102001F012
:1030A000B7FB40F22721112001F0B2FB322001F0E2
:1030B000F1FE8A21122001F0ABFB322001F0EAFE82
:1030C0004FF4D051132001F0A3FB0621292001F079
:1030D0009FFB0D212B2001F09BFB322001F0DAFE3B
:1030E0000021202001F094FB0021212001F090FB21
:1030F000322001F0CFFE0021302000E074E001F02A
:1031000087FB40F20461312001F082FB40F205317F
:10311000322001F07DFB0021352001F079FB40F6E3
:103120000941362001F074FB4FF40171372001F0A2
:103130006FFB40F20131382001F06AFB40F2077169
:10314000392001F065FB00213C2001F061FB40F6D5
:103150000A213D2001F05CFB322001F09BFE0021A2
:10316000502001F055FBEF21512001F051FB0021CF
:10317000522001F04DFB40F23F11532001F048FB7B
:103180004FF42741602001F043FB0121612001F051
:103190003FFB00216A2001F03BFB0021802001F071
:1031A00037FB0021812001F033FB0021822001F058
:1031B0002FFB0021832001F02BFB0021842001F054
:1031C00027FB0021852001F023FB1021902001F036
:1031D0001FFB4FF4C061922001F01AFB40F2331143
:1031E000072001F015FB24E61148808849F22031C0
:1031F00088427DD10021084601F00AFB4FF480711E
:10320000012001F005FB4FF4E061022001F000FB1A
:1032100041F23001032001F0FBFA0021042001F00B
:10322000F7FA40F20221082001F0F2FA002101E051
:10323000FCA00020092001F0EBFA00210A2001F097
:10324000E7FA01210C2001F0E3FA00210D2001F042
:10325000DFFA00210F2001F0DBFA322001F01AFE24
:1032600040F20111072001F0D3FA322001F012FEE2
:103270004FF48651102001F0CBFA0721112001F004
:10328000C7FA4FF48871122001F0C2FA4FF430618E
:10329000132001F0BDFA0021292001F0B9FA44F20F
:1032A00010012B2001F0B4FA0021502001F0B0FAF7
:1032B000EF21512001F0ACFA0021522001F0A8FAD0
:1032C00040F23F11532001F0A3FA4FF41C5160204B
:1032D00001F09EFA0121612001F09AFA00216A2092
:1032E00001F096FA0021802001F092FA002100E01E
:1032F00031E0812001F08CFA0021822001F088FA6F
:103300000021832001F084FA0021842001F080FA5A
:103310000021852001F07CFA1021902001F078FA3C
:103320000021922001F074FA0121932001F070FA3B
:103330004FF48871952001F06BFA0021972001F07D
:1033400067FA0021982001F063FA40F27311072018
:1033500001F05EFA6DE5FE48808849F2313188421D
:103360007DD141F21401E72001F052FA4FF480714F
:10337000012001F04DFA4FF40071022001F048FAEB
:1033800041F23801032001F043FA40F20221082003
:1033900001F03EFA0021092001F03AFA00210A204A
:1033A00001F036FA00210C2001F032FA00210D2044
:1033B00001F02EFA00210F2001F02AFA002110203E
:1033C00001F026FA0721112001F022FA0021122033
:1033D00001F01EFA0021132001F01AFAC82001F0B2
:1033E00059FD41F29061102001F012FA40F22721BC
:1033F000112001F00DFA322001F04CFD0C211220B9
:1034000001F006FA322001F045FD4FF4006113206F
:1034100001F0FEF91121292001F0FAF90B212B20EE
:1034200001F0F6F9322001F035FD0021202001F0F5
:10343000EFF940F23F11212001F0EAF9002130209C
:1034400001F0E6F94FF48371312001F0E1F9002138
:10345000322001F0DDF94FF40171352000E064E025
:1034600001F0D6F941F20A61362001F0D1F940F2BB
:103470000771372001F0CCF94FF48371382001F047
:10348000C7F940F20771392001F0C2F940F2024158
:103490003C2001F0BDF940F60F413D2001F0B8F9A4
:1034A0000021502001F0B4F9EF21512001F0B0F9D2
:1034B0000021522001F0ACF940F23F11532001F0FD
:1034C000A7F94FF41C51602001F0A2F901216120FD
:1034D00001F09EF900216A2001F09AF90021802074
:1034E00001F096F90021812001F092F9002182205B
:1034F00001F08EF90021832001F08AF90021842057
:1035000001F086F90021852001F082F91021902038
:1035100001F07EF94FF4C061922001F079F940F298
:103520003311072001F074F983E48948808845F25B
:10353000084188427ED14FF48071012001F068F982
:103540004FF4E061022001F063F941F23001032001
:1035500001F05EF90021042001F05AF940F2072140
:10356000082001F055F90021092001F051F900214E
:103570000A2001F04DF900210C2001F049F9002149
:103580000D2001F045F900210F2001F041F9142030
:1035900001F080FC41F2B061102001F039F9012105
:1035A000112001F035F90121172001F031F94FF414
:1035B0009C71122001F02CF94FF40061132001F0EE
:1035C00027F90921292001F023F909212A2001F0F6
:1035D0001FF90021A42001F01BF90021502001F067
:1035E00017F9EF21512001F013F90021522001F0C9
:1035F0000FF940F23F11532001F00AF94FF41C512A
:10360000602001F005F90121612001F001F900219C
:103610006A2001F0FDF80021802001F0F9F8002176
:10362000812001F0F5F80021822001F0F1F800215D
:10363000832000E023E001F0EBF80021842001F07A
:10364000E7F80021852001F0E3F81321902001F034
:10365000DFF80021922001F0DBF80321932001F034
:10366000D7F84FF48871952001F0D2F840F2731129
:10367000072001F0CDF8322001F00CFCB8E434480A
:10368000808841F2055188427ED10021072001F057
:10369000BFF8322001F0FEFB4FF48E71122001F0D2
:1036A000B7F80121A42001F0B3F80F21082001F0A0
:1036B000AFF808210A2001F0ABF808210D2001F035
:1036C000A7F840F20771302001F0A2F8072131205D
:1036D00001F09EF840F20361322001F099F84FF4B6
:1036E000E061332001F094F840F20221342001F02F
:1036F0008FF80221352001F08BF841F60F7136204A
:1037000001F086F840F20771372001F081F80021BE
:10371000382001F07DF80021392001F079F840F2DD
:1037200007713A2001F074F800213B2001F070F895
:1037300007213C2001F06CF800213D2001F068F8E1
:10374000322001F0A7FB0121072001F061F801E020
:10375000FCA000200121172001F05AF8322001F0CE
:1037600099FB4FF4BD51102001F052F840F217219F
:10377000112001F04DF84FF48F71122001F048F83C
:103780004FF47061132000E097E001F041F8002150
:103790002A2001F03DF80A21292001F039F84FF4E0
:1037A0009F71122001F034F80021502001F030F810
:1037B000EF21512001F02CF80021522001F028F8CF
:1037C00040F23F11532001F023F84FF41C516020C8
:1037D00001F01EF80121612001F01AF800216A2091
:1037E00001F016F80021802001F012F8002181205C
:1037F00001F00EF80021822001F00AF80021832058
:1038000001F006F80021842001F002F80021852053
:1038100000F0FEFF1321902000F0FAFF4FF44071FA
:10382000922000F0F5FF0521932000F0F1FF002128
:10383000952000F0EDFF0021972000F0E9FF002126
:10384000982000F0E5FF4FF48071012000F0E0FFC8
:103850004FF4E061022000F0DBFF41F23801032069
:1038600000F0D6FF0021042000F0D2FF00210C2040
:1038700000F0CEFF00210F2000F0CAFF0021202021
:1038800000F0C6FF0021212000F0C2FF2121072007
:1038900000F0BEFF142001F0FDFA6121072000F0C6
:1038A000B7FF142001F0F6FA40F27311072000F080
:1038B000AFFF142001F0EEFA95E4FE4880884BF249
:1038C000055188427ED10021084600F0A1FF002169
:1038D000084600F09DFF0021084600F099FF0021F6
:1038E000084600F095FF0121A42000F091FF14206C
:1038F00001F0D0FA4FF41C51602000F089FF40F233
:103900000221082000F084FF4FF40571302000F000
:103910007FFF43F21571312000F07AFF40F204611D
:10392000322000F075FF40F61661332000F070FF82
:1039300042F21121342000F06BFF4FF4A8513520E2
:1039400000F066FF48F20751362000F061FF41F2B7
:103950000741372000F05CFF41F20341382000F0BE
:1039600057FF2021392000F053FF1A21902000F04A
:103970004FFF0021102000F04BFF0721112000F025
:1039800047FF0021122000F043FF0021132000F028
:103990003FFF142001F07EFA4FF4E661102000F0A2
:1039A00037FF40F23711112000F032FF142001F0F0
:1039B00071FA4FF4DC71122000F02AFF142001F09C
:1039C00069FA00E083E04FF47061132000F020FFFB
:1039D00080212A2000F01CFF4821292000F018FF38
:1039E000142001F057FA4FF48071012000F010FF0D
:1039F0004FF4E061022000F00BFF41F23801032098
:103A000000F006FF40F20221082000F001FF002133
:103A10000A2000F0FDFE00210C2000F0F9FE00213C
:103A20000D2000F0F5FE30210E2000F0F1FE002107
:103A3000502000F0EDFEEF21512000F0E9FE0021C2
:103A4000522000F0E5FE40F23F11532000F0E0FE6E
:103A50004FF41C51602000F0DBFE0121612000F0DA
:103A6000D7FE00216A2000F0D3FE1121902000F043
:103A7000CFFE4FF4C061922000F0CAFE40F2024136
:103A8000932000F0C5FE0221942000F0C1FE142016
:103A900001F000FA0121072000F0BAFE142001F025
:103AA000F9F96121072000F0B3FE40F273110720FD
:103AB00000F0AEFE0021202000F0AAFE002121200F
:103AC00000F0A6FE2221002000F0A2FE11E37948BA
:103AD00080884CF2055188427ED10021084600F0D2
:103AE00097FE0021084600F093FE142001F0D2F961
:103AF0000021084600F08CFE0021084600F088FEF8
:103B00000021084600F084FE0021084600F080FEF7
:103B10000121A42000F07CFE142001F0BBF94FF439
:103B20001C51602000F074FE40F60601082000F0F1
:103B30006FFE40F20371302000F06AFE0121312057
:103B400000F066FE0421322000F062FE4FF4817125
:103B5000332000F05DFE4FF44071342000F058FE39
:103B600040F20311352000F053FE1F21362000F0F3
:103B70004FFE40F20371372000F04AFE0121382049
:103B800000F046FE0421392000F042FE152190206D
:103B900000F03EFE4FF48261102000F039FE40F24A
:103BA0004721112000F034FE4FF4DE71122000F0A6
:103BB0002FFE4FF46061132000F02AFE782001F000
:103BC00069F94FF48071012000F022FE4FF400717A
:103BD000022000F01DFE00E050E041F23001032021
:103BE00000F016FE08210A2000F012FE00210C2031
:103BF00000F00EFE20210E2000F00AFE00210F2012
:103C000000F006FE0021202000F002FE002121200D
:103C100000F0FEFD3D212A2000F0FAFD142001F005
:103C200039F92D21292000F0F3FD0021502000F06A
:103C3000EFFD4DF2EF01512000F0EAFD002152208E
:103C400000F0E6FD40F23F11532000F0E1FD0021BD
:103C5000612000F0DDFD00216A2000F0D9FD4FF465
:103C60004071922000F0D4FD0521932000F0D0FD9A
:103C70004FF48071072000F0CBFD3AE20D488088B8
:103C800044F2315188427CD10121002000F0C0FD76
:103C90000A2001F0FFF841F22861102000F0B8FD81
:103CA0000E21122000F0B4FD40F63921132000F05F
:103CB000AFFD01E0FCA000200A2001F0EBF840215C
:103CC000112000F0A5FD5021152000F0A1FD0A20D3
:103CD00001F0E0F81E21122000F09AFD0A2001F008
:103CE000D9F84FF4B151102000F092FD42F639217D
:103CF000132000F08DFD0A2001F0CCF84FF4807104
:103D0000012000F085FD4FF44071022000F080FD9D
:103D100041F23801032000F07BFD40F2022108202F
:103D200000F076FD08210A2000F072FD002130200D
:103D300000F06EFD40F20241312000F069FD4FF4C9
:103D40008371322000F064FD40F20351332000F013
:103D50005FFD4FF48271342000F05AFD40F20131D2
:103D6000352000F055FD40F20771362000F050FD7F
:103D700040F20531372000F04BFD4FF4027138203E
:103D800000E040E000F044FD40F60B71392000F007
:103D90003FFD0221412000F03BFD4FF41C5160200B
:103DA00000F036FD0121612000F032FD4FF4047176
:103DB000902000F02DFD4FF48571922000F028FD39
:103DC0000421932000F024FD4FF48071A02000F026
:103DD0001FFD0121072000F01BFD2121072000F01D
:103DE00017FD2321072000F013FD3321072000F0E9
:103DF0000FFD40F23311072000F00AFD0021A02042
:103E000000F006FD75E1C148808844F235518842D2
:103E10007ED13021152000F0FBFC10219A2000F00B
:103E2000F7FC2021112000F0F3FC43F22841102080
:103E300000F0EEFC0221122000F0EAFC41F2380111
:103E4000132000F0E5FC282001F024F81221084698
:103E500000F0DEFC282001F01DF843F22041102084
:103E600000F0D6FC43F23801132000F0D1FC4620CC
:103E700001F010F80021302000F0CAFC40F20241AD
:103E8000312000F0C5FC40F20731322000F0C0FCC8
:103E90004FF44171332000F0BBFC0421342000F0CA
:103EA000B7FC40F20141352000F0B2FC40F207714E
:103EB000362000F0ADFC40F20531372000F0A8FCC0
:103EC0004FF4C261382000F0A3FC4FF4C2613920E6
:103ED00000F09EFC4FF48071012000F099FC4FF43B
:103EE0004071022000F094FC41F23001032000F008
:103EF0008FFC40F60801082000F08AFC08210A2007
:103F000000F086FC4FF41C51602000F081FC00E0C2
:103F100031E00121612000F07BFC4FF49F71902083
:103F200000F076FC4FF48071922000F071FC4FF4A9
:103F30008071932000F06CFC4FF44051A02000F001
:103F400067FC1021A32000F063FC0121072000F092
:103F50005FFC2121072000F05BFC2321072000F0FB
:103F600057FC3321072000F053FC40F233110720A7
:103F700000F04EFCBDE06548808841F66311884240
:103F8000F8D1E22000F034FC1D2000F02BFC0220D0
:103F900000F028FC042000F025FC642000F0A0FFC5
:103FA000E02000F025FC012000F01CFC0A2000F0BD
:103FB00071FFE02000F01CFC032000F013FC0C203B
:103FC00000F068FF012000F013FC0A2000F062FFFF
:103FD000E62000F00DFC2F2000F004FCFF2000F094
:103FE00001FCFF2000F0FEFBB02000F001FC2020CF
:103FF00000F0F8FB002000F0F5FB032000F0F2FBDE
:1040000040F21F3000F0EEFB012000F0EBFB40F22D
:10401000DF1000F0E7FB002000F0E4FBB42000F02C
:10402000E7FB042000F0DEFB40F21F4000F0DAFB6B
:10403000002000F0D7FB2E2000F0D4FB002000F081
:10404000D1FB002000F0CEFB002000F0CBFB0020D5
:1040500000F0C8FBB62000F0CBFB022000F0C2FB52
:104060004FF4037000F0BEFB002000F0BBFB1720F4
:1040700000F0B8FB152000F0B5FB002000F0B2FB0B
:10408000002000F0AFFBF02000F0B2FB032000F0B6
:10409000A9FB292000F0ACFBD02000F0A9FB0020F8
:1040A00000F0A0FBBE2000F0A3FB052000F09AFB6F
:1040B000FE2000F097FB012000F094FB002000F0B0
:1040C00091FB002000F08EFB002000F08BFBB8205D
:1040D00000F08EFB032000F085FB012000F082FB46
:1040E000BA2000F085FB012000F07CFB642000F08A
:1040F0003DF80020FCF7C2FA0120054908604FF6A0
:10410000FF70FCF785FA1FB000BD0000FCA0002086
:10411000808121421CB500F09BFEFCF74DFC05A000
:104120000C211223E422CDE900100621084600F0FC
:1041300025FB1CBD4C43445F496E69745365740094
:1041400008B5034800880090BDF8000008BD0000D5
:104150000008006C10B50446204600F049FB05201D
:1041600000F0BEFEFFF7ECFF10BD00002DE9F047A8
:104170000446BE2000F03CFB052000F033FB204647
:10418000FCF764F807464FF066320C4BFBF7ECFF88
:104190000546FCF768F81FFA80F9484600F022FB54
:1041A000012000F01FFBFF2000F01CFB002000F0AE
:1041B00019FB002000F016FBBDE8F087666604409E
:1041C00070B5044600230026B748807901280BD13A
:1041D000B548808846F60401884205D0B2488088F8
:1041E00041F66311884208D1AF488079F0B9AE48F2
:1041F000808841F66311884218D1082C15D2DFE877
:1042000004F00406080A0C0E101206240DE0072420
:104210000BE0042409E0052407E0012405E0002464
:1042200003E0032401E0022400BF00BF9E48808811
:1042300049F24131884217D09B48808846F60401F4
:10424000884211D09848808845F2103188420BD0BE
:104250009548808845F21051884205D09248808860
:1042600041F6631188427DD1082C1CD2DFE804F0AE
:104270000406090C0F12151800BF14E043F0800368
:1042800011E043F040030EE043F0C0030BE043F0C5
:10429000200308E043F0600305E043F0A00302E0E0
:1042A00043F0E00300BF00BF7F48808845F2105113
:1042B000884202D14FF4585600E036267A4880886A
:1042C00045F2103188420DD07748808845F2105170
:1042D000884207D07448808841F66311884201D033
:1042E00043F008037048808846F60401884201D1F3
:1042F00043F002031946304600F08AFA6A48808883
:1043000041F6631188421DD003F0200068B1664871
:10431000008865494988884214DA634805884088DE
:1043200061490880084645800CE05F4800885E4986
:104330004988884206DD5C48058840885A490880DB
:10434000084645805848808845F21051884254D12B
:104350005549488900F04CFA002000F043FA5249D0
:10436000498900E078E0491C88B200F041FA002059
:1043700000F038FA4C494989891C88B200F038FAB3
:1043800049490988491EC1F30F2000F02BFA46491C
:104390004989C91C88B200F02BFA43490978491EA3
:1043A000C8B200F01FFA4049888900F021FA0020C5
:1043B00000F018FA3C498989491C88B200F018FAC3
:1043C000002000F00FFA38498989891C88B200F072
:1043D0000FFA35494988491EC1F30F2000F002FA4F
:1043E00031498989C91C88B200F002FA2E498978BE
:1043F000491EC8B200F0F6F955E02B49488900F093
:10440000F7F9002000F0EEF9002000F0EBF9264962
:104410000988491EC1F30F2000F0E4F92249097808
:10442000491EC8B200F0DEF91F49888900F0E0F9A2
:10443000002000F0D7F9002000F0D4F91A4949888B
:10444000491EC1F30F2000F0CDF917498978491EA4
:10445000C8B200F0C7F926E0082C1CD2DFE804F04F
:1044600004070A0D0F12151843F0300313E043F050
:10447000100310E043F020030DE000BF0BE043F019
:10448000380308E043F0280305E043F0180302E096
:1044900043F0080300BF00BF032643F480531946CE
:1044A000304600F0B5F970BDFCA0002010B5034601
:1044B0000C466748808849F24131884205D06448FB
:1044C000808845F21031884214D16149488900F052
:1044D0008FF9181200F086F9D8B200F083F95C4920
:1044E000888900F085F9201200F07CF9E0B200F034
:1044F00079F9ABE05648808846F6040188421DD120
:1045000053488079012804D151480088401EC01AC0
:1045100083B24F49488900F06BF9181200F062F934
:10452000D8B200F05FF94A49888900F061F9201299
:1045300000F058F9E0B200F055F987E0444880886F
:1045400041F66311884247D141488079A8B9404873
:104550000088401EC01A83B23D49488900F048F9DE
:10456000002000F03FF9002000F03CF9181200F0A4
:1045700039F9D8B200F036F916E03549488900F02B
:1045800037F9181200F02EF9D8B200F02BF93049A3
:104590000988491EC1F30F2000F024F92C4909783D
:1045A000491EC8B200F01EF92949888900F020F997
:1045B000201200F017F9E0B200F014F924494988FC
:1045C000491EC1F30F2000F00DF921498978491ED9
:1045D000C8B200F007F939E01D48808845F2105153
:1045E000884220D11A49488900F002F9181200F0D7
:1045F000F9F817494989491C88B200F0F9F8D8B28E
:1046000000F0F0F81249888900F0F2F8201200F06A
:10461000E9F80F498989491C88B200F0E9F8E0B24D
:1046200000F0E0F812E00A488079012804D1084837
:104630000088401EC01A83B205494889194600F017
:10464000E7F803498889214600F0E2F810BD000030
:10465000FCA000202DE9F84F80460E4617461C4668
:10466000B3462046E31704EB5373DB1021464FEAB1
:10467000E47C04EB5C7C4FEAEC0CA4EBCC0CBCF1CE
:10468000000F02D04FF0010C01E04FF0000C63442A
:10469000224604EBD27C4FEA6C0C03FB0CF3DBB23A
:1046A0000093A7F12000C7B2002556E00C2C07D1DB
:1046B00007EB47002B4901EB800010F8059013E051
:1046C000102C05D1284800EB071010F805900BE0DE
:1046D000182C07D107EBC700244901EB800010F824
:1046E000059001E0BDE8F88F4FF0000A2FE009F0D7
:1046F000800030B11E48028831464046FCF79EF8E3
:1047000007E00A9828B91B48028831464046FCF762
:1047100095F84FEA49604FEA1069701C86B2164856
:104720004088B04200DCDDE7A6EB0B00A0420AD1D6
:104730005E4608F101001FFA80F80F4800884045E6
:1047400000DCCFE706E00AF1010000F0FF0ABAF151
:10475000080FCCDB00BF681CC5B200988542A5DB02
:1047600000BFBFE7404F0020B4530020A4590020F1
:1047700030A0002032A00020FCA000202DE9F84746
:1047800004460D4690469946DDE9096704F0FF0AA4
:1047900008EB04001FFA80F809EB05001FFA80F906
:1047A00016E0444502DB5446A81985B24D4500DBAE
:1047B00014E0002000903A78334629462046FFF75F
:1047C00049FF304606EBD07104EB61018CB27F1CCF
:1047D00038787E2802DC38782028E2DA00BFBDE88D
:1047E000F887000001490880704700000008006C4D
:1047F0000149088070470000FE07006C02480089EC
:104800000249088070470000FCA00020FE07006CF1
:10481000024A1080921C118070470000FE07006C55
:1048200000BFFEE77047000070B5002100230F2293
:10483000C47804B3154C246804F4E064C4F5E0645F
:10484000210AC1F10403CA40447804FA03F18478D0
:104850001440214309010E4C0678A155047804F058
:104860001F050124AC4005786D11AD0005F1E02570
:10487000C5F8004109E0047804F01F050124AC40AC
:10488000044D0678761145F8264070BD0CED00E029
:1048900000E400E080E100E002490143024A1160C7
:1048A000704700000000FA050CED00E070470000C2
:1048B00029B1064A52690243044B5A6104E0034A93
:1048C00052698243014B5A61704700000010024058
:1048D00029B1064A92690243044B9A6104E0034AF3
:1048E00092698243014B9A617047000000100240B8
:1048F00030B500210022002400232D4D6D6805F005
:104900000C0121B1042905D0082923D105E0294D46
:10491000056022E0274D05601FE0254D6D6805F418
:104920007012234D6D6805F48034022505EB924228
:104930001CB9214D554305600BE01D4D6D6805F414
:1049400000351DB11C4D5543056002E0194D55431E
:10495000056002E0174D056000BF00BF144D6D6893
:1049600005F0F0010909154D6B5C0568DD404560F7
:104970000F4D6D6805F4E061090A104D6B5C4568E8
:10498000DD4085600A4D6D6805F46051C90A0B4D24
:104990006B5C4568DD40C560054D6D6805F44041C0
:1049A000890B074D6B5CC568B5FBF3F5056130BD40
:1049B0000010024000127A0000093D0014A00020FF
:1049C00024A00020704710B500F002F810BD0000D0
:1049D0000CB50020019000903348006840F480300E
:1049E0003149086000BF3048006800F40030009092
:1049F0000198401C0190009818B90198B0F5A06F7B
:104A0000F1D12948006800F4003010B10120009075
:104A100001E0002000900098012843D1234800685D
:104A200040F01000214908600846006820F00300AB
:104A300008600846006840F0020008601A484068B4
:104A4000194948600846406848600846406840F494
:104A5000806048600846406820F47C104860084642
:104A6000406840F4E81048600846006840F08070F4
:104A7000086000BF0C48006800F000700028F9D002
:104A80000948406820F0030007494860084640682C
:104A900040F00200486000BF0348406800F00C008E
:104AA0000828F9D10CBD000000100240002002408F
:104AB000042808D14FF0E021096941F004014FF0CA
:104AC000E022116107E04FF0E021096921F00401C3
:104AD0004FF0E022116170477047000010B5134895
:104AE000006840F00100114908600846406810491C
:104AF00008400E494860084600680E4908400B49C6
:104B000008600846006820F4802008600846406875
:104B100020F4FE0048604FF41F008860FFF753FF49
:104B20004FF000500449086010BD00000010024022
:104B30000000FFF8FFFFF6FE08ED00E01CB540F2B4
:104B40002551254800F0B2F8012844D1224800F050
:104B500069F92249224A1288885421480088401C59
:104B60001F49088008460088801E1C49085C0D28E3
:104B700031D11B480088401E085C0A282BD11948F7
:104B80000078192806DD0020164908704FF6FF70DE
:104B9000FBF73EFD11480C21CDE9001011480078CB
:104BA00000EB40008000811D1223E4220620FFF765
:104BB000E5FD0B480088401E282190FBF1F00949D3
:104BC000097808440749087008460078401C0870B6
:104BD0000020034908801CBD0038014034A000209B
:104BE00028A000202AA0002000B587B0012144F2AF
:104BF0000100FFF76DFE18208DF81B004FF40070C8
:104C0000ADF8180001208DF81A0006A91F48FBF71F
:104C100072FC04208DF81B000002ADF81800012082
:104C20008DF81A0006A91948FBF765FC4FF4E1302E
:104C300002900020ADF814000420ADF8120000022C
:104C4000ADF810000020ADF80E00ADF80C0002A980
:104C50000F4800F07BF825208DF8040001208DF826
:104C6000070002208DF805008DF8060001A8FFF767
:104C7000DBFD012240F22551054800F041F80121F9
:104C8000034800F007F807B000BD0000000801402D
:104C90000038014021B1828942F40052828104E04F
:104CA00082894DF6FF731A408281704770B50246C3
:104CB000002400230025002040F66A16B14200D1EE
:104CC00000BFC1F3421501F01F03012606FA03F3EA
:104CD000012D02D19689334006E0022D02D1168AB9
:104CE000334001E0968A33400C12012606FA04F4A0
:104CF0001688344013B10CB1012000E0002070BDD3
:104D0000F0B50346002400260025002040F66A176F
:104D1000B94200D100BF1846C1F3421401F01F068A
:104D2000012707FA06F5012C01D10C3004E0022C12
:104D300001D1103000E014301AB107682F4307602A
:104D400002E00768AF430760F0BD00002DE9F047BF
:104D500086B005460E460024A24600BFA1460027A5
:104D6000B08900B100BF2F462C8A4CF6FF7004407A
:104D7000F08804432C82AC894EF6F3100440B088CE
:104D800031890843718908430443AC81AC8A4FF6EA
:104D9000FF400440B0890443AC8201A8FFF7A8FD9E
:104DA0001F48874202D1DDF810A001E0DDF80CA019
:104DB000A88900F4004040B10AEBCA0000EB0A10D9
:104DC00031684900B0FBF1F807E00AEBCA0000EBDC
:104DD0000A1031688900B0FBF1F86420B8FBF0F0EC
:104DE00004012009642101FB1089A88900F4004016
:104DF00040B1322000EBC900B0FBF1F000F0070039
:104E0000044308E0322000EB09106421B0FBF1F00C
:104E100000F00F0004432C8106B0BDE8F0870000CD
:104E20000038014001468888C0F30800704700BF81
:104E3000FEE702E008C8121F08C1002AFAD1704735
:104E40007047002001E001C1121F002AFBD170470A
:104E500010B56FF00400FFF72BFE0A4800680A49FE
:104E6000B0FBF1F0094908700846007800EB4001FA
:104E7000C1EBC0104FF6FF7101EAC0000449088081
:104E800010BD000000A0002000127A002CA000201D
:104E90002EA000200146114A12884A434FF0E02319
:104EA0005A6100229A611A46126942F001021A619F
:104EB00000BF4FF0E022106900F001021AB100F4C7
:104EC0008032002AF5D04FF0E022126922F0010270
:104ED0004FF0E0231A6100229A6170472EA0002053
:104EE0000146114A12784A434FF0E0235A610022EA
:104EF0009A611A46126942F001021A6100BF4FF02E
:104F0000E022106900F001021AB100F48032002A98
:104F1000F5D04FF0E022126922F001024FF0E023B9
:104F20001A6100229A6170472CA000204FF4A06003
:104F3000FFF7B2FCFFF758FEFFF7ECF800BFFEE703
:104F40000000000000000000000000000000000061
:104F50003F40000000000000000030004000300032
:104F60004000000009000BC03D000BC03D000900DF
:104F700018C024407FE0224031800000180024C087
:104F80001B000D803240018003801C4027401C80A4
:104F9000074000401000600000000000000000001A
:104FA0000000000000001F80204040200000402042
:104FB00020401F8000000000090006001F8006003E
:104FC00009000000040004003F8004000400000009
:104FD0000010006000000000000000000400040059
:104FE0000400040004000000000000400000000075
:104FF00000000000002001C0060038004000000052
:105000001F802040204020401F80000000001040F2
:105010003FC000400000000018C021402240244052
:105020001840000010802040244024401B800000D5
:1050300002000D0011003FC0014000003C802440F0
:1050400024402440238000001F802440244034401A
:10505000038000003000200027C03800200000003E
:105060001B802440244024401B8000001C0022C0E0
:10507000224022401F800000000000000840000085
:1050800000000000000000000460000000000000BC
:10509000000004000A0011002080404009000900BF
:1050A00009000900090000000000404020801100B4
:1050B0000A0004001800200023402400180000000B
:1050C0001F802040274029401F400000004007C0AB
:1050D00039000F0001C0004020403FC02440244060
:1050E0001B8000001F8020402040204030800000B6
:1050F00020403FC0204020401F80000020403FC093
:1051000024402E4030C0000020403FC024402E00EC
:10511000300000000F001080204022403380020049
:1051200020403FC0040004003FC0204020402040F9
:105130003FC02040204000000060202020203FC0D1
:105140002000200020403FC024400B0030C0204001
:1051500020403FC020400040004000C03FC03C0015
:1051600003C03C003FC0000020403FC00C40230073
:105170003FC020001F802040204020401F800000B2
:1051800020403FC024402400180000001F80214020
:10519000214020E01FA0000020403FC02440260006
:1051A00019C0004018C02440244022403180000033
:1051B000300020403FC020403000000020003F80F1
:1051C000004000403F80200020003E0001C007005A
:1051D00038002000380007C03C0007C0380000003D
:1051E000204039C0060039C020400000200038406F
:1051F00007C0384020000000304021C02640384021
:1052000020C00000000000007FE04020402000009F
:10521000000070000C0003800040000000004020EF
:1052200040207FE00000000000002000400020003F
:10523000000000000010001000100010001000100E
:10524000000000004000000000000000000002809C
:105250000540054003C0004020003FC0044004401A
:10526000038000000000038004400440064000006A
:1052700000000380044024403FC000400000038041
:105280000540054003400000000004401FC02440CA
:1052900024402000000002E0055005500650042084
:1052A00020403FC00440040003C000400000044010
:1052B00027C000400000000000100010041027E08C
:1052C0000000000020403FC00140070004C004402F
:1052D000204020403FC000400040000007C00400C4
:1052E00007C0040003C00000044007C004400400DD
:1052F00003C000400000038004400440038000001D
:10530000041007F0045004400380000000000380F4
:105310000440045007F00010044007C0024004009D
:1053200004000000000006400540054004C00000E5
:10533000000004001F8004400040000004000780BB
:105340000040044007C000400400070004C0018082
:1053500006000400060001C0070001C006000000AE
:10536000044006C0010006C00440000004100710FD
:1053700004E00180060004000000044005C006406F
:10538000044000000000000004007BE0402000001A
:10539000000000000000FFF00000000000004020BE
:1053A0007BE004000000000040008000400020007E
:1053B000200040000000000000000000000000008D
:1053C000000000000000000000001FCC000C0000E6
:1053D00000000000000008003000600008003000FD
:1053E00060000000022003FC1E20022003FC1E209F
:1053F0000220000000000E1811043FFF10840C78FA
:10540000000000000F0010840F3800C007781884D7
:105410000078000000780F8410C411240E9800E476
:105420000084000808006800700000000000000010
:105430000000000000000000000007E01818200431
:1054400040020000000040022004181807E000009D
:10545000000000000240024001800FF00180024085
:10546000024000000080008000800FF80080008073
:10547000008000000001000D000E00000000000090
:10548000000000000000008000800080008000809C
:10549000008000800000000C000C000000000000F4
:1054A00000000000000000060018006001800600F7
:1054B00018002000000007F0080810041004080875
:1054C00007F000000000080408041FFC00040004AA
:1054D0000000000000000E0C101410241044118471
:1054E0000E0C000000000C181004110411041288A6
:1054F0000C700000000000E00320042408241FFCBE
:105500000024000000001F9810841104110410886A
:1055100010700000000007F00888110411041888BA
:105520000070000000001C00100010FC13001C00A4
:105530001000000000000E38114410841084114443
:105540000E38000000000700088C10441044088842
:1055500007F00000000000000000030C030C000036
:105560000000000000000000000101060000000033
:105570000000000000000080014002200410080824
:10558000100400000220022002200220022002203B
:10559000022000000000100408080410022001404E
:1055A0000080000000000E001200100C106C108033
:1055B0000F00000003E00C1813E4142417C408289B
:1055C00007D000000004003C03C41C40074000E476
:1055D000001C000410041FFC1104110411040E88A7
:1055E0000070000003E00C181004100410041008F0
:1055F0001C10000010041FFC100410041004080804
:1056000007F0000010041FFC1104110417C410045B
:105610000818000010041FFC1104110017C010002E
:105620000800000003E00C181004100410441C785B
:105630000040000010041FFC1084008000801084D3
:105640001FFC10040000100410041FFC10041004C0
:105650000000000000030001100110011FFE1000F7
:105660001000000010041FFC110403801464181CB7
:105670001004000010041FFC1004000400040004C7
:10568000000C000010041FFC1F0000FC1F001FFC8A
:105690001004000010041FFC0C04030000E01018AC
:1056A0001FFC100007F0080810041004100408087C
:1056B00007F0000010041FFC108410801080108080
:1056C0000F00000007F0081810241024101C080A0E
:1056D00007F2000010041FFC1104110011C011306A
:1056E0000E0C000400000E1C1104108410841044E1
:1056F0001C3800001800100010041FFC10041000DB
:105700001800000010001FF810040004000410042A
:105710001FF8100010001E0011E0001C0070138024
:105720001C0010001FC0103C00E01F0000E0103CF7
:105730001FC000001004180C163401C001C016343C
:10574000180C100410001C00130400FC13041C00AF
:10575000100000000804101C1064108413041C04C2
:10576000101800000000000000007FFE4002400210
:1057700040020000000030000C0003800060001CAC
:105780000003000000004002400240027FFE0000D3
:105790000000000000000000200040004000400029
:1057A00020000000000100010001000100010001D3
:1057B0000001000100004000400020000000000047
:1057C000000000000000009801240144014401444D
:1057D00000FC000410001FFC008801040104008884
:1057E0000070000000000070008801040104010442
:1057F0000088000000000070008801040104110806
:105800001FFC0004000000F801440144014401446D
:1058100000C800000000010401040FFC1104110481
:1058200011001800000000D601290129012901C931
:105830000106000010041FFC0084010001000104A7
:1058400000FC000400000104190419FC0004000419
:10585000000000000000000300010101190119FE11
:105860000000000010041FFC0024004001B4010CE3
:10587000010400000000100410041FFC00040004D8
:1058800000000000010401FC0104010001FC01040E
:10589000010000FC010401FC00840100010001047E
:1058A00000FC0004000000F80104010401040104EC
:1058B00000F80000010101FF0085010401040088D7
:1058C0000070000000000070008801040104010560
:1058D00001FF00010104010401FC00840104010036
:1058E00001800000000000CC0124012401240124D7
:1058F0000198000000000100010007F80104010404
:1059000000000000010001F8000400040004010888
:1059100001FC0004010001800170000C0010016016
:105920000180010001F0010C003001C00030010CC9
:1059300001F0010000000104018C00740170018C71
:1059400001040000010101810171000E00180160D5
:105950000180010000000184010C01340144018434
:10596000010C0000000000000000000001003EFCEF
:10597000400240020000000000000000FFFF0000A5
:10598000000000000000400240023EFC0100000058
:105990000000000000006000800080004000400027
:1059A00020002000000000000000000000000000B7
:1059B00000000000000000000000000000000000E7
:1059C00000000000000000000000000000000000D7
:1059D000000000000000000F80380FFE380F8038F4
:1059E00000000000000000000000000000000000B7
:1059F00000000100000600000C000038000031002B
:105A0000000600000C00003800003000000000001C
:105A10000000000061800067F807F98000618000E5
:105A200061800061800061800067F807F980006193
:105A30008000000000000000000001C0E003E0F072
:105A40000630080418081FFFFE040E080787F0033D
:105A500081E000000000000001F000060C000404DA
:105A600008060C7001F9C0000E00003BE000EC18C5
:105A7000070808040C180003E00000000001E00023
:105A800007F003F818041C0804170807E1D003C046
:105A9000E00023B0003C08002008000010000000D7
:105AA0000000000100003100003200001C00000076
:105AB00000000000000000000000000000000000E6
:105AC00000000000000000000000000000000000D6
:105AD000000000007F0001FFC00780F00C001810DC
